{
  "_format": "hh-sol-artifact-1",
  "contractName": "CadenaNFT",
  "sourceName": "contracts/CadenaNFT.sol",
  "abi": [
    {
      "inputs": [],
      "stateMutability": "nonpayable",
      "type": "constructor"
    },
    {
      "anonymous": false,
      "inputs": [
        {
          "indexed": true,
          "internalType": "address",
          "name": "owner",
          "type": "address"
        },
        {
          "indexed": true,
          "internalType": "address",
          "name": "approved",
          "type": "address"
        },
        {
          "indexed": true,
          "internalType": "uint256",
          "name": "tokenId",
          "type": "uint256"
        }
      ],
      "name": "Approval",
      "type": "event"
    },
    {
      "anonymous": false,
      "inputs": [
        {
          "indexed": true,
          "internalType": "address",
          "name": "owner",
          "type": "address"
        },
        {
          "indexed": true,
          "internalType": "address",
          "name": "operator",
          "type": "address"
        },
        {
          "indexed": false,
          "internalType": "bool",
          "name": "approved",
          "type": "bool"
        }
      ],
      "name": "ApprovalForAll",
      "type": "event"
    },
    {
      "anonymous": false,
      "inputs": [
        {
          "indexed": true,
          "internalType": "address",
          "name": "previousOwner",
          "type": "address"
        },
        {
          "indexed": true,
          "internalType": "address",
          "name": "newOwner",
          "type": "address"
        }
      ],
      "name": "OwnershipTransferred",
      "type": "event"
    },
    {
      "anonymous": false,
      "inputs": [
        {
          "indexed": true,
          "internalType": "address",
          "name": "from",
          "type": "address"
        },
        {
          "indexed": true,
          "internalType": "address",
          "name": "to",
          "type": "address"
        },
        {
          "indexed": true,
          "internalType": "uint256",
          "name": "tokenId",
          "type": "uint256"
        }
      ],
      "name": "Transfer",
      "type": "event"
    },
    {
      "inputs": [],
      "name": "MAX_SUPPLY",
      "outputs": [
        {
          "internalType": "uint256",
          "name": "",
          "type": "uint256"
        }
      ],
      "stateMutability": "view",
      "type": "function"
    },
    {
      "inputs": [],
      "name": "MINT_PRICE",
      "outputs": [
        {
          "internalType": "uint256",
          "name": "",
          "type": "uint256"
        }
      ],
      "stateMutability": "view",
      "type": "function"
    },
    {
      "inputs": [
        {
          "internalType": "address",
          "name": "to",
          "type": "address"
        },
        {
          "internalType": "uint256",
          "name": "tokenId",
          "type": "uint256"
        }
      ],
      "name": "approve",
      "outputs": [],
      "stateMutability": "nonpayable",
      "type": "function"
    },
    {
      "inputs": [
        {
          "internalType": "address",
          "name": "owner",
          "type": "address"
        }
      ],
      "name": "balanceOf",
      "outputs": [
        {
          "internalType": "uint256",
          "name": "",
          "type": "uint256"
        }
      ],
      "stateMutability": "view",
      "type": "function"
    },
    {
      "inputs": [
        {
          "internalType": "uint256",
          "name": "tokenId",
          "type": "uint256"
        }
      ],
      "name": "getApproved",
      "outputs": [
        {
          "internalType": "address",
          "name": "",
          "type": "address"
        }
      ],
      "stateMutability": "view",
      "type": "function"
    },
    {
      "inputs": [
        {
          "internalType": "address",
          "name": "owner",
          "type": "address"
        },
        {
          "internalType": "address",
          "name": "operator",
          "type": "address"
        }
      ],
      "name": "isApprovedForAll",
      "outputs": [
        {
          "internalType": "bool",
          "name": "",
          "type": "bool"
        }
      ],
      "stateMutability": "view",
      "type": "function"
    },
    {
      "inputs": [],
      "name": "name",
      "outputs": [
        {
          "internalType": "string",
          "name": "",
          "type": "string"
        }
      ],
      "stateMutability": "view",
      "type": "function"
    },
    {
      "inputs": [],
      "name": "owner",
      "outputs": [
        {
          "internalType": "address",
          "name": "",
          "type": "address"
        }
      ],
      "stateMutability": "view",
      "type": "function"
    },
    {
      "inputs": [
        {
          "internalType": "uint256",
          "name": "tokenId",
          "type": "uint256"
        }
      ],
      "name": "ownerOf",
      "outputs": [
        {
          "internalType": "address",
          "name": "",
          "type": "address"
        }
      ],
      "stateMutability": "view",
      "type": "function"
    },
    {
      "inputs": [],
      "name": "renounceOwnership",
      "outputs": [],
      "stateMutability": "nonpayable",
      "type": "function"
    },
    {
      "inputs": [
        {
          "internalType": "address",
          "name": "to",
          "type": "address"
        },
        {
          "internalType": "string",
          "name": "uri",
          "type": "string"
        }
      ],
      "name": "safeMint",
      "outputs": [],
      "stateMutability": "payable",
      "type": "function"
    },
    {
      "inputs": [
        {
          "internalType": "address",
          "name": "from",
          "type": "address"
        },
        {
          "internalType": "address",
          "name": "to",
          "type": "address"
        },
        {
          "internalType": "uint256",
          "name": "tokenId",
          "type": "uint256"
        }
      ],
      "name": "safeTransferFrom",
      "outputs": [],
      "stateMutability": "nonpayable",
      "type": "function"
    },
    {
      "inputs": [
        {
          "internalType": "address",
          "name": "from",
          "type": "address"
        },
        {
          "internalType": "address",
          "name": "to",
          "type": "address"
        },
        {
          "internalType": "uint256",
          "name": "tokenId",
          "type": "uint256"
        },
        {
          "internalType": "bytes",
          "name": "data",
          "type": "bytes"
        }
      ],
      "name": "safeTransferFrom",
      "outputs": [],
      "stateMutability": "nonpayable",
      "type": "function"
    },
    {
      "inputs": [
        {
          "internalType": "address",
          "name": "operator",
          "type": "address"
        },
        {
          "internalType": "bool",
          "name": "approved",
          "type": "bool"
        }
      ],
      "name": "setApprovalForAll",
      "outputs": [],
      "stateMutability": "nonpayable",
      "type": "function"
    },
    {
      "inputs": [
        {
          "internalType": "bytes4",
          "name": "interfaceId",
          "type": "bytes4"
        }
      ],
      "name": "supportsInterface",
      "outputs": [
        {
          "internalType": "bool",
          "name": "",
          "type": "bool"
        }
      ],
      "stateMutability": "view",
      "type": "function"
    },
    {
      "inputs": [],
      "name": "symbol",
      "outputs": [
        {
          "internalType": "string",
          "name": "",
          "type": "string"
        }
      ],
      "stateMutability": "view",
      "type": "function"
    },
    {
      "inputs": [
        {
          "internalType": "uint256",
          "name": "index",
          "type": "uint256"
        }
      ],
      "name": "tokenByIndex",
      "outputs": [
        {
          "internalType": "uint256",
          "name": "",
          "type": "uint256"
        }
      ],
      "stateMutability": "view",
      "type": "function"
    },
    {
      "inputs": [
        {
          "internalType": "address",
          "name": "owner",
          "type": "address"
        },
        {
          "internalType": "uint256",
          "name": "index",
          "type": "uint256"
        }
      ],
      "name": "tokenOfOwnerByIndex",
      "outputs": [
        {
          "internalType": "uint256",
          "name": "",
          "type": "uint256"
        }
      ],
      "stateMutability": "view",
      "type": "function"
    },
    {
      "inputs": [
        {
          "internalType": "uint256",
          "name": "tokenId",
          "type": "uint256"
        }
      ],
      "name": "tokenURI",
      "outputs": [
        {
          "internalType": "string",
          "name": "",
          "type": "string"
        }
      ],
      "stateMutability": "view",
      "type": "function"
    },
    {
      "inputs": [],
      "name": "totalSupply",
      "outputs": [
        {
          "internalType": "uint256",
          "name": "",
          "type": "uint256"
        }
      ],
      "stateMutability": "view",
      "type": "function"
    },
    {
      "inputs": [
        {
          "internalType": "address",
          "name": "from",
          "type": "address"
        },
        {
          "internalType": "address",
          "name": "to",
          "type": "address"
        },
        {
          "internalType": "uint256",
          "name": "tokenId",
          "type": "uint256"
        }
      ],
      "name": "transferFrom",
      "outputs": [],
      "stateMutability": "nonpayable",
      "type": "function"
    },
    {
      "inputs": [
        {
          "internalType": "address",
          "name": "newOwner",
          "type": "address"
        }
      ],
      "name": "transferOwnership",
      "outputs": [],
      "stateMutability": "nonpayable",
      "type": "function"
    },
    {
      "inputs": [],
      "name": "withdrawPayments",
      "outputs": [],
      "stateMutability": "nonpayable",
      "type": "function"
    }
  ],
  "bytecode": "0x60806040523480156200001157600080fd5b506040518060400160405280600981526020017f436164656e614e465400000000000000000000000000000000000000000000008152506040518060400160405280600381526020017f4341440000000000000000000000000000000000000000000000000000000000815250816000908051906020019062000096929190620001d3565b508060019080519060200190620000af929190620001d3565b505050620000d2620000c6620000ef60201b60201c565b620000f760201b60201c565b620000e9600c620001bd60201b62000e471760201c565b620002e8565b600033905090565b6000600b60009054906101000a900473ffffffffffffffffffffffffffffffffffffffff16905081600b60006101000a81548173ffffffffffffffffffffffffffffffffffffffff021916908373ffffffffffffffffffffffffffffffffffffffff1602179055508173ffffffffffffffffffffffffffffffffffffffff168173ffffffffffffffffffffffffffffffffffffffff167f8be0079c531659141344cd1fd0a4f28419497f9722a3daafe3b4186f6b6457e060405160405180910390a35050565b6001816000016000828254019250508190555050565b828054620001e19062000283565b90600052602060002090601f01602090048101928262000205576000855562000251565b82601f106200022057805160ff191683800117855562000251565b8280016001018555821562000251579182015b828111156200025057825182559160200191906001019062000233565b5b50905062000260919062000264565b5090565b5b808211156200027f57600081600090555060010162000265565b5090565b600060028204905060018216806200029c57607f821691505b60208210811415620002b357620002b2620002b9565b5b50919050565b7f4e487b7100000000000000000000000000000000000000000000000000000000600052602260045260246000fd5b6137f480620002f86000396000f3fe6080604052600436106101405760003560e01c80636352211e116100b6578063b88d4fde1161006f578063b88d4fde1461045c578063c002d23d14610485578063c87b56dd146104b0578063d204c45e146104ed578063e985e9c514610509578063f2fde38b1461054657610140565b80636352211e1461034c57806370a0823114610389578063715018a6146103c65780638da5cb5b146103dd57806395d89b4114610408578063a22cb4651461043357610140565b806323b872dd1161010857806323b872dd1461023e5780632f745c591461026757806332cb6b0c146102a457806342842e0e146102cf5780634f6ccce7146102f85780636103d70b1461033557610140565b806301ffc9a71461014557806306fdde0314610182578063081812fc146101ad578063095ea7b3146101ea57806318160ddd14610213575b600080fd5b34801561015157600080fd5b5061016c600480360381019061016791906127ef565b61056f565b6040516101799190612c3b565b60405180910390f35b34801561018e57600080fd5b50610197610581565b6040516101a49190612c56565b60405180910390f35b3480156101b957600080fd5b506101d460048036038101906101cf9190612841565b610613565b6040516101e19190612bd4565b60405180910390f35b3480156101f657600080fd5b50610211600480360381019061020c91906127b3565b610659565b005b34801561021f57600080fd5b50610228610771565b6040516102359190612eb8565b60405180910390f35b34801561024a57600080fd5b5061026560048036038101906102609190612659565b61077e565b005b34801561027357600080fd5b5061028e600480360381019061028991906127b3565b6107de565b60405161029b9190612eb8565b60405180910390f35b3480156102b057600080fd5b506102b9610883565b6040516102c69190612eb8565b60405180910390f35b3480156102db57600080fd5b506102f660048036038101906102f19190612659565b61088a565b005b34801561030457600080fd5b5061031f600480360381019061031a9190612841565b6108aa565b60405161032c9190612eb8565b60405180910390f35b34801561034157600080fd5b5061034a610941565b005b34801561035857600080fd5b50610373600480360381019061036e9190612841565b610999565b6040516103809190612bd4565b60405180910390f35b34801561039557600080fd5b506103b060048036038101906103ab91906125f4565b610a4b565b6040516103bd9190612eb8565b60405180910390f35b3480156103d257600080fd5b506103db610b03565b005b3480156103e957600080fd5b506103f2610b17565b6040516103ff9190612bd4565b60405180910390f35b34801561041457600080fd5b5061041d610b41565b60405161042a9190612c56565b60405180910390f35b34801561043f57600080fd5b5061045a60048036038101906104559190612723565b610bd3565b005b34801561046857600080fd5b50610483600480360381019061047e91906126a8565b610be9565b005b34801561049157600080fd5b5061049a610c4b565b6040516104a79190612eb8565b60405180910390f35b3480156104bc57600080fd5b506104d760048036038101906104d29190612841565b610c56565b6040516104e49190612c56565b60405180910390f35b6105076004803603810190610502919061275f565b610c68565b005b34801561051557600080fd5b50610530600480360381019061052b919061261d565b610d2f565b60405161053d9190612c3b565b60405180910390f35b34801561055257600080fd5b5061056d600480360381019061056891906125f4565b610dc3565b005b600061057a82610e5d565b9050919050565b6060600080546105909061310e565b80601f01602080910402602001604051908101604052809291908181526020018280546105bc9061310e565b80156106095780601f106105de57610100808354040283529160200191610609565b820191906000526020600020905b8154815290600101906020018083116105ec57829003601f168201915b5050505050905090565b600061061e82610ed7565b6004600083815260200190815260200160002060009054906101000a900473ffffffffffffffffffffffffffffffffffffffff169050919050565b600061066482610999565b90508073ffffffffffffffffffffffffffffffffffffffff168373ffffffffffffffffffffffffffffffffffffffff1614156106d5576040517f08c379a00000000000000000000000000000000000000000000000000000000081526004016106cc90612e38565b60405180910390fd5b8073ffffffffffffffffffffffffffffffffffffffff166106f4610f22565b73ffffffffffffffffffffffffffffffffffffffff16148061072357506107228161071d610f22565b610d2f565b5b610762576040517f08c379a000000000000000000000000000000000000000000000000000000000815260040161075990612db8565b60405180910390fd5b61076c8383610f2a565b505050565b6000600880549050905090565b61078f610789610f22565b82610fe3565b6107ce576040517f08c379a00000000000000000000000000000000000000000000000000000000081526004016107c590612e98565b60405180910390fd5b6107d9838383611078565b505050565b60006107e983610a4b565b821061082a576040517f08c379a000000000000000000000000000000000000000000000000000000000815260040161082190612c78565b60405180910390fd5b600660008473ffffffffffffffffffffffffffffffffffffffff1673ffffffffffffffffffffffffffffffffffffffff168152602001908152602001600020600083815260200190815260200160002054905092915050565b620f424081565b6108a583838360405180602001604052806000815250610be9565b505050565b60006108b4610771565b82106108f5576040517f08c379a00000000000000000000000000000000000000000000000000000000081526004016108ec90612e78565b60405180910390fd5b6008828154811061092f577f4e487b7100000000000000000000000000000000000000000000000000000000600052603260045260246000fd5b90600052602060002001549050919050565b6109496112df565b610951610b17565b73ffffffffffffffffffffffffffffffffffffffff166108fc479081150290604051600060405180830381858888f19350505050158015610996573d6000803e3d6000fd5b50565b6000806002600084815260200190815260200160002060009054906101000a900473ffffffffffffffffffffffffffffffffffffffff169050600073ffffffffffffffffffffffffffffffffffffffff168173ffffffffffffffffffffffffffffffffffffffff161415610a42576040517f08c379a0000000000000000000000000000000000000000000000000000000008152600401610a3990612e18565b60405180910390fd5b80915050919050565b60008073ffffffffffffffffffffffffffffffffffffffff168273ffffffffffffffffffffffffffffffffffffffff161415610abc576040517f08c379a0000000000000000000000000000000000000000000000000000000008152600401610ab390612d58565b60405180910390fd5b600360008373ffffffffffffffffffffffffffffffffffffffff1673ffffffffffffffffffffffffffffffffffffffff168152602001908152602001600020549050919050565b610b0b6112df565b610b15600061135d565b565b6000600b60009054906101000a900473ffffffffffffffffffffffffffffffffffffffff16905090565b606060018054610b509061310e565b80601f0160208091040260200160405190810160405280929190818152602001828054610b7c9061310e565b8015610bc95780601f10610b9e57610100808354040283529160200191610bc9565b820191906000526020600020905b815481529060010190602001808311610bac57829003601f168201915b5050505050905090565b610be5610bde610f22565b8383611423565b5050565b610bfa610bf4610f22565b83610fe3565b610c39576040517f08c379a0000000000000000000000000000000000000000000000000000000008152600401610c3090612e98565b60405180910390fd5b610c4584848484611590565b50505050565b66038d7ea4c6800081565b6060610c61826115ec565b9050919050565b66038d7ea4c68000341015610cb2576040517f08c379a0000000000000000000000000000000000000000000000000000000008152600401610ca990612d98565b60405180910390fd5b620f4240610cbe610771565b10610cfe576040517f08c379a0000000000000000000000000000000000000000000000000000000008152600401610cf590612e58565b60405180910390fd5b6000610d0a600c6116ff565b9050610d16600c610e47565b610d20838261170d565b610d2a818361172b565b505050565b6000600560008473ffffffffffffffffffffffffffffffffffffffff1673ffffffffffffffffffffffffffffffffffffffff16815260200190815260200160002060008373ffffffffffffffffffffffffffffffffffffffff1673ffffffffffffffffffffffffffffffffffffffff16815260200190815260200160002060009054906101000a900460ff16905092915050565b610dcb6112df565b600073ffffffffffffffffffffffffffffffffffffffff168173ffffffffffffffffffffffffffffffffffffffff161415610e3b576040517f08c379a0000000000000000000000000000000000000000000000000000000008152600401610e3290612cb8565b60405180910390fd5b610e448161135d565b50565b6001816000016000828254019250508190555050565b60007f780e9d63000000000000000000000000000000000000000000000000000000007bffffffffffffffffffffffffffffffffffffffffffffffffffffffff1916827bffffffffffffffffffffffffffffffffffffffffffffffffffffffff19161480610ed05750610ecf8261179f565b5b9050919050565b610ee081611881565b610f1f576040517f08c379a0000000000000000000000000000000000000000000000000000000008152600401610f1690612e18565b60405180910390fd5b50565b600033905090565b816004600083815260200190815260200160002060006101000a81548173ffffffffffffffffffffffffffffffffffffffff021916908373ffffffffffffffffffffffffffffffffffffffff160217905550808273ffffffffffffffffffffffffffffffffffffffff16610f9d83610999565b73ffffffffffffffffffffffffffffffffffffffff167f8c5be1e5ebec7d5bd14f71427d1e84f3dd0314c0f7b2291e5b200ac8c7c3b92560405160405180910390a45050565b600080610fef83610999565b90508073ffffffffffffffffffffffffffffffffffffffff168473ffffffffffffffffffffffffffffffffffffffff16148061103157506110308185610d2f565b5b8061106f57508373ffffffffffffffffffffffffffffffffffffffff1661105784610613565b73ffffffffffffffffffffffffffffffffffffffff16145b91505092915050565b8273ffffffffffffffffffffffffffffffffffffffff1661109882610999565b73ffffffffffffffffffffffffffffffffffffffff16146110ee576040517f08c379a00000000000000000000000000000000000000000000000000000000081526004016110e590612cd8565b60405180910390fd5b600073ffffffffffffffffffffffffffffffffffffffff168273ffffffffffffffffffffffffffffffffffffffff16141561115e576040517f08c379a000000000000000000000000000000000000000000000000000000000815260040161115590612d18565b60405180910390fd5b6111698383836118ed565b611174600082610f2a565b6001600360008573ffffffffffffffffffffffffffffffffffffffff1673ffffffffffffffffffffffffffffffffffffffff16815260200190815260200160002060008282546111c49190613024565b925050819055506001600360008473ffffffffffffffffffffffffffffffffffffffff1673ffffffffffffffffffffffffffffffffffffffff168152602001908152602001600020600082825461121b9190612f9d565b92505081905550816002600083815260200190815260200160002060006101000a81548173ffffffffffffffffffffffffffffffffffffffff021916908373ffffffffffffffffffffffffffffffffffffffff160217905550808273ffffffffffffffffffffffffffffffffffffffff168473ffffffffffffffffffffffffffffffffffffffff167fddf252ad1be2c89b69c2b068fc378daa952ba7f163c4a11628f55a4df523b3ef60405160405180910390a46112da8383836118fd565b505050565b6112e7610f22565b73ffffffffffffffffffffffffffffffffffffffff16611305610b17565b73ffffffffffffffffffffffffffffffffffffffff161461135b576040517f08c379a000000000000000000000000000000000000000000000000000000000815260040161135290612df8565b60405180910390fd5b565b6000600b60009054906101000a900473ffffffffffffffffffffffffffffffffffffffff16905081600b60006101000a81548173ffffffffffffffffffffffffffffffffffffffff021916908373ffffffffffffffffffffffffffffffffffffffff1602179055508173ffffffffffffffffffffffffffffffffffffffff168173ffffffffffffffffffffffffffffffffffffffff167f8be0079c531659141344cd1fd0a4f28419497f9722a3daafe3b4186f6b6457e060405160405180910390a35050565b8173ffffffffffffffffffffffffffffffffffffffff168373ffffffffffffffffffffffffffffffffffffffff161415611492576040517f08c379a000000000000000000000000000000000000000000000000000000000815260040161148990612d38565b60405180910390fd5b80600560008573ffffffffffffffffffffffffffffffffffffffff1673ffffffffffffffffffffffffffffffffffffffff16815260200190815260200160002060008473ffffffffffffffffffffffffffffffffffffffff1673ffffffffffffffffffffffffffffffffffffffff16815260200190815260200160002060006101000a81548160ff0219169083151502179055508173ffffffffffffffffffffffffffffffffffffffff168373ffffffffffffffffffffffffffffffffffffffff167f17307eab39ab6107e8899845ad3d59bd9653f200f220920489ca2b5937696c31836040516115839190612c3b565b60405180910390a3505050565b61159b848484611078565b6115a784848484611902565b6115e6576040517f08c379a00000000000000000000000000000000000000000000000000000000081526004016115dd90612c98565b60405180910390fd5b50505050565b60606115f782610ed7565b6000600a600084815260200190815260200160002080546116179061310e565b80601f01602080910402602001604051908101604052809291908181526020018280546116439061310e565b80156116905780601f1061166557610100808354040283529160200191611690565b820191906000526020600020905b81548152906001019060200180831161167357829003601f168201915b5050505050905060006116a1611a99565b90506000815114156116b75781925050506116fa565b6000825111156116ec5780826040516020016116d4929190612bb0565b604051602081830303815290604052925050506116fa565b6116f584611ab0565b925050505b919050565b600081600001549050919050565b611727828260405180602001604052806000815250611b18565b5050565b61173482611881565b611773576040517f08c379a000000000000000000000000000000000000000000000000000000000815260040161176a90612d78565b60405180910390fd5b80600a6000848152602001908152602001600020908051906020019061179a929190612418565b505050565b60007f80ac58cd000000000000000000000000000000000000000000000000000000007bffffffffffffffffffffffffffffffffffffffffffffffffffffffff1916827bffffffffffffffffffffffffffffffffffffffffffffffffffffffff1916148061186a57507f5b5e139f000000000000000000000000000000000000000000000000000000007bffffffffffffffffffffffffffffffffffffffffffffffffffffffff1916827bffffffffffffffffffffffffffffffffffffffffffffffffffffffff1916145b8061187a575061187982611b73565b5b9050919050565b60008073ffffffffffffffffffffffffffffffffffffffff166002600084815260200190815260200160002060009054906101000a900473ffffffffffffffffffffffffffffffffffffffff1673ffffffffffffffffffffffffffffffffffffffff1614159050919050565b6118f8838383611bdd565b505050565b505050565b60006119238473ffffffffffffffffffffffffffffffffffffffff16611cf1565b15611a8c578373ffffffffffffffffffffffffffffffffffffffff1663150b7a0261194c610f22565b8786866040518563ffffffff1660e01b815260040161196e9493929190612bef565b602060405180830381600087803b15801561198857600080fd5b505af19250505080156119b957506040513d601f19601f820116820180604052508101906119b69190612818565b60015b611a3c573d80600081146119e9576040519150601f19603f3d011682016040523d82523d6000602084013e6119ee565b606091505b50600081511415611a34576040517f08c379a0000000000000000000000000000000000000000000000000000000008152600401611a2b90612c98565b60405180910390fd5b805181602001fd5b63150b7a0260e01b7bffffffffffffffffffffffffffffffffffffffffffffffffffffffff1916817bffffffffffffffffffffffffffffffffffffffffffffffffffffffff191614915050611a91565b600190505b949350505050565b606060405180602001604052806000815250905090565b6060611abb82610ed7565b6000611ac5611a99565b90506000815111611ae55760405180602001604052806000815250611b10565b80611aef84611d14565b604051602001611b00929190612bb0565b6040516020818303038152906040525b915050919050565b611b228383611ec1565b611b2f6000848484611902565b611b6e576040517f08c379a0000000000000000000000000000000000000000000000000000000008152600401611b6590612c98565b60405180910390fd5b505050565b60007f01ffc9a7000000000000000000000000000000000000000000000000000000007bffffffffffffffffffffffffffffffffffffffffffffffffffffffff1916827bffffffffffffffffffffffffffffffffffffffffffffffffffffffff1916149050919050565b611be883838361209b565b600073ffffffffffffffffffffffffffffffffffffffff168373ffffffffffffffffffffffffffffffffffffffff161415611c2b57611c26816120a0565b611c6a565b8173ffffffffffffffffffffffffffffffffffffffff168373ffffffffffffffffffffffffffffffffffffffff1614611c6957611c6883826120e9565b5b5b600073ffffffffffffffffffffffffffffffffffffffff168273ffffffffffffffffffffffffffffffffffffffff161415611cad57611ca881612256565b611cec565b8273ffffffffffffffffffffffffffffffffffffffff168273ffffffffffffffffffffffffffffffffffffffff1614611ceb57611cea8282612399565b5b5b505050565b6000808273ffffffffffffffffffffffffffffffffffffffff163b119050919050565b60606000821415611d5c576040518060400160405280600181526020017f30000000000000000000000000000000000000000000000000000000000000008152509050611ebc565b600082905060005b60008214611d8e578080611d7790613171565b915050600a82611d879190612ff3565b9150611d64565b60008167ffffffffffffffff811115611dd0577f4e487b7100000000000000000000000000000000000000000000000000000000600052604160045260246000fd5b6040519080825280601f01601f191660200182016040528015611e025781602001600182028036833780820191505090505b5090505b60008514611eb557600182611e1b9190613024565b9150600a85611e2a91906131ba565b6030611e369190612f9d565b60f81b818381518110611e72577f4e487b7100000000000000000000000000000000000000000000000000000000600052603260045260246000fd5b60200101907effffffffffffffffffffffffffffffffffffffffffffffffffffffffffffff1916908160001a905350600a85611eae9190612ff3565b9450611e06565b8093505050505b919050565b600073ffffffffffffffffffffffffffffffffffffffff168273ffffffffffffffffffffffffffffffffffffffff161415611f31576040517f08c379a0000000000000000000000000000000000000000000000000000000008152600401611f2890612dd8565b60405180910390fd5b611f3a81611881565b15611f7a576040517f08c379a0000000000000000000000000000000000000000000000000000000008152600401611f7190612cf8565b60405180910390fd5b611f86600083836118ed565b6001600360008473ffffffffffffffffffffffffffffffffffffffff1673ffffffffffffffffffffffffffffffffffffffff1681526020019081526020016000206000828254611fd69190612f9d565b92505081905550816002600083815260200190815260200160002060006101000a81548173ffffffffffffffffffffffffffffffffffffffff021916908373ffffffffffffffffffffffffffffffffffffffff160217905550808273ffffffffffffffffffffffffffffffffffffffff16600073ffffffffffffffffffffffffffffffffffffffff167fddf252ad1be2c89b69c2b068fc378daa952ba7f163c4a11628f55a4df523b3ef60405160405180910390a4612097600083836118fd565b5050565b505050565b6008805490506009600083815260200190815260200160002081905550600881908060018154018082558091505060019003906000526020600020016000909190919091505550565b600060016120f684610a4b565b6121009190613024565b90506000600760008481526020019081526020016000205490508181146121e5576000600660008673ffffffffffffffffffffffffffffffffffffffff1673ffffffffffffffffffffffffffffffffffffffff168152602001908152602001600020600084815260200190815260200160002054905080600660008773ffffffffffffffffffffffffffffffffffffffff1673ffffffffffffffffffffffffffffffffffffffff168152602001908152602001600020600084815260200190815260200160002081905550816007600083815260200190815260200160002081905550505b6007600084815260200190815260200160002060009055600660008573ffffffffffffffffffffffffffffffffffffffff1673ffffffffffffffffffffffffffffffffffffffff16815260200190815260200160002060008381526020019081526020016000206000905550505050565b6000600160088054905061226a9190613024565b90506000600960008481526020019081526020016000205490506000600883815481106122c0577f4e487b7100000000000000000000000000000000000000000000000000000000600052603260045260246000fd5b906000526020600020015490508060088381548110612308577f4e487b7100000000000000000000000000000000000000000000000000000000600052603260045260246000fd5b90600052602060002001819055508160096000838152602001908152602001600020819055506009600085815260200190815260200160002060009055600880548061237d577f4e487b7100000000000000000000000000000000000000000000000000000000600052603160045260246000fd5b6001900381819060005260206000200160009055905550505050565b60006123a483610a4b565b905081600660008573ffffffffffffffffffffffffffffffffffffffff1673ffffffffffffffffffffffffffffffffffffffff168152602001908152602001600020600083815260200190815260200160002081905550806007600084815260200190815260200160002081905550505050565b8280546124249061310e565b90600052602060002090601f016020900481019282612446576000855561248d565b82601f1061245f57805160ff191683800117855561248d565b8280016001018555821561248d579182015b8281111561248c578251825591602001919060010190612471565b5b50905061249a919061249e565b5090565b5b808211156124b757600081600090555060010161249f565b5090565b60006124ce6124c984612ef8565b612ed3565b9050828152602081018484840111156124e657600080fd5b6124f18482856130cc565b509392505050565b600061250c61250784612f29565b612ed3565b90508281526020810184848401111561252457600080fd5b61252f8482856130cc565b509392505050565b60008135905061254681613762565b92915050565b60008135905061255b81613779565b92915050565b60008135905061257081613790565b92915050565b60008151905061258581613790565b92915050565b600082601f83011261259c57600080fd5b81356125ac8482602086016124bb565b91505092915050565b600082601f8301126125c657600080fd5b81356125d68482602086016124f9565b91505092915050565b6000813590506125ee816137a7565b92915050565b60006020828403121561260657600080fd5b600061261484828501612537565b91505092915050565b6000806040838503121561263057600080fd5b600061263e85828601612537565b925050602061264f85828601612537565b9150509250929050565b60008060006060848603121561266e57600080fd5b600061267c86828701612537565b935050602061268d86828701612537565b925050604061269e868287016125df565b9150509250925092565b600080600080608085870312156126be57600080fd5b60006126cc87828801612537565b94505060206126dd87828801612537565b93505060406126ee878288016125df565b925050606085013567ffffffffffffffff81111561270b57600080fd5b6127178782880161258b565b91505092959194509250565b6000806040838503121561273657600080fd5b600061274485828601612537565b92505060206127558582860161254c565b9150509250929050565b6000806040838503121561277257600080fd5b600061278085828601612537565b925050602083013567ffffffffffffffff81111561279d57600080fd5b6127a9858286016125b5565b9150509250929050565b600080604083850312156127c657600080fd5b60006127d485828601612537565b92505060206127e5858286016125df565b9150509250929050565b60006020828403121561280157600080fd5b600061280f84828501612561565b91505092915050565b60006020828403121561282a57600080fd5b600061283884828501612576565b91505092915050565b60006020828403121561285357600080fd5b6000612861848285016125df565b91505092915050565b61287381613058565b82525050565b6128828161306a565b82525050565b600061289382612f5a565b61289d8185612f70565b93506128ad8185602086016130db565b6128b6816132a7565b840191505092915050565b60006128cc82612f65565b6128d68185612f81565b93506128e68185602086016130db565b6128ef816132a7565b840191505092915050565b600061290582612f65565b61290f8185612f92565b935061291f8185602086016130db565b80840191505092915050565b6000612938602b83612f81565b9150612943826132b8565b604082019050919050565b600061295b603283612f81565b915061296682613307565b604082019050919050565b600061297e602683612f81565b915061298982613356565b604082019050919050565b60006129a1602583612f81565b91506129ac826133a5565b604082019050919050565b60006129c4601c83612f81565b91506129cf826133f4565b602082019050919050565b60006129e7602483612f81565b91506129f28261341d565b604082019050919050565b6000612a0a601983612f81565b9150612a158261346c565b602082019050919050565b6000612a2d602983612f81565b9150612a3882613495565b604082019050919050565b6000612a50602e83612f81565b9150612a5b826134e4565b604082019050919050565b6000612a73602f83612f81565b9150612a7e82613533565b604082019050919050565b6000612a96603e83612f81565b9150612aa182613582565b604082019050919050565b6000612ab9602083612f81565b9150612ac4826135d1565b602082019050919050565b6000612adc602083612f81565b9150612ae7826135fa565b602082019050919050565b6000612aff601883612f81565b9150612b0a82613623565b602082019050919050565b6000612b22602183612f81565b9150612b2d8261364c565b604082019050919050565b6000612b45601283612f81565b9150612b508261369b565b602082019050919050565b6000612b68602c83612f81565b9150612b73826136c4565b604082019050919050565b6000612b8b602e83612f81565b9150612b9682613713565b604082019050919050565b612baa816130c2565b82525050565b6000612bbc82856128fa565b9150612bc882846128fa565b91508190509392505050565b6000602082019050612be9600083018461286a565b92915050565b6000608082019050612c04600083018761286a565b612c11602083018661286a565b612c1e6040830185612ba1565b8181036060830152612c308184612888565b905095945050505050565b6000602082019050612c506000830184612879565b92915050565b60006020820190508181036000830152612c7081846128c1565b905092915050565b60006020820190508181036000830152612c918161292b565b9050919050565b60006020820190508181036000830152612cb18161294e565b9050919050565b60006020820190508181036000830152612cd181612971565b9050919050565b60006020820190508181036000830152612cf181612994565b9050919050565b60006020820190508181036000830152612d11816129b7565b9050919050565b60006020820190508181036000830152612d31816129da565b9050919050565b60006020820190508181036000830152612d51816129fd565b9050919050565b60006020820190508181036000830152612d7181612a20565b9050919050565b60006020820190508181036000830152612d9181612a43565b9050919050565b60006020820190508181036000830152612db181612a66565b9050919050565b60006020820190508181036000830152612dd181612a89565b9050919050565b60006020820190508181036000830152612df181612aac565b9050919050565b60006020820190508181036000830152612e1181612acf565b9050919050565b60006020820190508181036000830152612e3181612af2565b9050919050565b60006020820190508181036000830152612e5181612b15565b9050919050565b60006020820190508181036000830152612e7181612b38565b9050919050565b60006020820190508181036000830152612e9181612b5b565b9050919050565b60006020820190508181036000830152612eb181612b7e565b9050919050565b6000602082019050612ecd6000830184612ba1565b92915050565b6000612edd612eee565b9050612ee98282613140565b919050565b6000604051905090565b600067ffffffffffffffff821115612f1357612f12613278565b5b612f1c826132a7565b9050602081019050919050565b600067ffffffffffffffff821115612f4457612f43613278565b5b612f4d826132a7565b9050602081019050919050565b600081519050919050565b600081519050919050565b600082825260208201905092915050565b600082825260208201905092915050565b600081905092915050565b6000612fa8826130c2565b9150612fb3836130c2565b9250827fffffffffffffffffffffffffffffffffffffffffffffffffffffffffffffffff03821115612fe857612fe76131eb565b5b828201905092915050565b6000612ffe826130c2565b9150613009836130c2565b9250826130195761301861321a565b5b828204905092915050565b600061302f826130c2565b915061303a836130c2565b92508282101561304d5761304c6131eb565b5b828203905092915050565b6000613063826130a2565b9050919050565b60008115159050919050565b60007fffffffff0000000000000000000000000000000000000000000000000000000082169050919050565b600073ffffffffffffffffffffffffffffffffffffffff82169050919050565b6000819050919050565b82818337600083830152505050565b60005b838110156130f95780820151818401526020810190506130de565b83811115613108576000848401525b50505050565b6000600282049050600182168061312657607f821691505b6020821081141561313a57613139613249565b5b50919050565b613149826132a7565b810181811067ffffffffffffffff8211171561316857613167613278565b5b80604052505050565b600061317c826130c2565b91507fffffffffffffffffffffffffffffffffffffffffffffffffffffffffffffffff8214156131af576131ae6131eb565b5b600182019050919050565b60006131c5826130c2565b91506131d0836130c2565b9250826131e0576131df61321a565b5b828206905092915050565b7f4e487b7100000000000000000000000000000000000000000000000000000000600052601160045260246000fd5b7f4e487b7100000000000000000000000000000000000000000000000000000000600052601260045260246000fd5b7f4e487b7100000000000000000000000000000000000000000000000000000000600052602260045260246000fd5b7f4e487b7100000000000000000000000000000000000000000000000000000000600052604160045260246000fd5b6000601f19601f8301169050919050565b7f455243373231456e756d657261626c653a206f776e657220696e646578206f7560008201527f74206f6620626f756e6473000000000000000000000000000000000000000000602082015250565b7f4552433732313a207472616e7366657220746f206e6f6e20455243373231526560008201527f63656976657220696d706c656d656e7465720000000000000000000000000000602082015250565b7f4f776e61626c653a206e6577206f776e657220697320746865207a65726f206160008201527f6464726573730000000000000000000000000000000000000000000000000000602082015250565b7f4552433732313a207472616e736665722066726f6d20696e636f72726563742060008201527f6f776e6572000000000000000000000000000000000000000000000000000000602082015250565b7f4552433732313a20746f6b656e20616c7265616479206d696e74656400000000600082015250565b7f4552433732313a207472616e7366657220746f20746865207a65726f2061646460008201527f7265737300000000000000000000000000000000000000000000000000000000602082015250565b7f4552433732313a20617070726f766520746f2063616c6c657200000000000000600082015250565b7f4552433732313a2061646472657373207a65726f206973206e6f74206120766160008201527f6c6964206f776e65720000000000000000000000000000000000000000000000602082015250565b7f45524337323155524953746f726167653a2055524920736574206f66206e6f6e60008201527f6578697374656e7420746f6b656e000000000000000000000000000000000000602082015250565b7f5472616e73616374696f6e2076616c756520646964206e6f7420657175616c2060008201527f746865206d696e74207072696365210000000000000000000000000000000000602082015250565b7f4552433732313a20617070726f76652063616c6c6572206973206e6f7420746f60008201527f6b656e206f776e6572206e6f7220617070726f76656420666f7220616c6c0000602082015250565b7f4552433732313a206d696e7420746f20746865207a65726f2061646472657373600082015250565b7f4f776e61626c653a2063616c6c6572206973206e6f7420746865206f776e6572600082015250565b7f4552433732313a20696e76616c696420746f6b656e2049440000000000000000600082015250565b7f4552433732313a20617070726f76616c20746f2063757272656e74206f776e6560008201527f7200000000000000000000000000000000000000000000000000000000000000602082015250565b7f4d617820737570706c7920726561636865640000000000000000000000000000600082015250565b7f455243373231456e756d657261626c653a20676c6f62616c20696e646578206f60008201527f7574206f6620626f756e64730000000000000000000000000000000000000000602082015250565b7f4552433732313a2063616c6c6572206973206e6f7420746f6b656e206f776e6560008201527f72206e6f7220617070726f766564000000000000000000000000000000000000602082015250565b61376b81613058565b811461377657600080fd5b50565b6137828161306a565b811461378d57600080fd5b50565b61379981613076565b81146137a457600080fd5b50565b6137b0816130c2565b81146137bb57600080fd5b5056fea2646970667358221220eeaf494cb7a8e7e87172c46bcf4be8f3c7cc9e652cb201c806bd981dcf31960464736f6c63430008040033",
  "linkReferences": {},
  "deployedLinkReferences": {}
}